{
  "address": "0x8f86d2Ea8b9db37C229E87D28D35749D15fd574C",
  "abi": [
    {
      "inputs": [],
      "stateMutability": "nonpayable",
      "type": "constructor"
    },
    {
      "inputs": [],
      "name": "CHARITY_charityOwnerCanNotDonate",
      "type": "error"
    },
    {
      "inputs": [],
      "name": "CHARITY_errorTransferingFunds",
      "type": "error"
    },
    {
      "inputs": [],
      "name": "CHARITY_maxCharityAmountReached",
      "type": "error"
    },
    {
      "inputs": [],
      "name": "CHARITY_missingArguments",
      "type": "error"
    },
    {
      "inputs": [],
      "name": "CHARITY_noCharityFound",
      "type": "error"
    },
    {
      "inputs": [],
      "name": "CHARITY_notCharityOwner",
      "type": "error"
    },
    {
      "inputs": [],
      "name": "CHARITY_zeroFunds",
      "type": "error"
    },
    {
      "anonymous": false,
      "inputs": [
        {
          "indexed": false,
          "internalType": "string",
          "name": "name",
          "type": "string"
        },
        {
          "indexed": true,
          "internalType": "address",
          "name": "creator",
          "type": "address"
        },
        {
          "indexed": false,
          "internalType": "string",
          "name": "description",
          "type": "string"
        },
        {
          "indexed": false,
          "internalType": "uint256",
          "name": "fundedAmount",
          "type": "uint256"
        },
        {
          "indexed": false,
          "internalType": "uint256",
          "name": "goal",
          "type": "uint256"
        },
        {
          "indexed": false,
          "internalType": "address[]",
          "name": "funders",
          "type": "address[]"
        },
        {
          "indexed": false,
          "internalType": "string",
          "name": "mainImage",
          "type": "string"
        },
        {
          "indexed": true,
          "internalType": "uint256",
          "name": "id",
          "type": "uint256"
        }
      ],
      "name": "charityCreated",
      "type": "event"
    },
    {
      "anonymous": false,
      "inputs": [
        {
          "indexed": false,
          "internalType": "uint256",
          "name": "id",
          "type": "uint256"
        },
        {
          "indexed": false,
          "internalType": "address",
          "name": "owner",
          "type": "address"
        },
        {
          "indexed": false,
          "internalType": "address",
          "name": "funder",
          "type": "address"
        },
        {
          "indexed": false,
          "internalType": "uint256",
          "name": "fundedAmount",
          "type": "uint256"
        }
      ],
      "name": "charityFunded",
      "type": "event"
    },
    {
      "anonymous": false,
      "inputs": [
        {
          "indexed": false,
          "internalType": "address",
          "name": "owner",
          "type": "address"
        },
        {
          "indexed": false,
          "internalType": "uint256",
          "name": "id",
          "type": "uint256"
        }
      ],
      "name": "fundsWithdrawn",
      "type": "event"
    },
    {
      "inputs": [
        {
          "internalType": "string",
          "name": "_name",
          "type": "string"
        },
        {
          "internalType": "string",
          "name": "_description",
          "type": "string"
        },
        {
          "internalType": "uint256",
          "name": "_goal",
          "type": "uint256"
        },
        {
          "internalType": "string",
          "name": "_image",
          "type": "string"
        }
      ],
      "name": "createCharity",
      "outputs": [
        {
          "internalType": "uint256",
          "name": "",
          "type": "uint256"
        }
      ],
      "stateMutability": "nonpayable",
      "type": "function"
    },
    {
      "inputs": [
        {
          "internalType": "address",
          "name": "_owner",
          "type": "address"
        },
        {
          "internalType": "uint256",
          "name": "_id",
          "type": "uint256"
        }
      ],
      "name": "fundCharity",
      "outputs": [],
      "stateMutability": "payable",
      "type": "function"
    },
    {
      "inputs": [
        {
          "internalType": "address",
          "name": "_owner",
          "type": "address"
        },
        {
          "internalType": "uint256",
          "name": "_id",
          "type": "uint256"
        }
      ],
      "name": "getCharities",
      "outputs": [
        {
          "components": [
            {
              "internalType": "string",
              "name": "name",
              "type": "string"
            },
            {
              "internalType": "address",
              "name": "owner",
              "type": "address"
            },
            {
              "internalType": "string",
              "name": "description",
              "type": "string"
            },
            {
              "internalType": "uint256",
              "name": "fundedAmount",
              "type": "uint256"
            },
            {
              "internalType": "uint256",
              "name": "goal",
              "type": "uint256"
            },
            {
              "internalType": "address[]",
              "name": "funders",
              "type": "address[]"
            },
            {
              "internalType": "uint256",
              "name": "id",
              "type": "uint256"
            },
            {
              "internalType": "string",
              "name": "mainImage",
              "type": "string"
            }
          ],
          "internalType": "struct Charity.aCharity",
          "name": "",
          "type": "tuple"
        }
      ],
      "stateMutability": "view",
      "type": "function"
    },
    {
      "inputs": [
        {
          "internalType": "address",
          "name": "_owner",
          "type": "address"
        },
        {
          "internalType": "uint256",
          "name": "_id",
          "type": "uint256"
        }
      ],
      "name": "getCompletedCharities",
      "outputs": [
        {
          "components": [
            {
              "internalType": "string",
              "name": "name",
              "type": "string"
            },
            {
              "internalType": "address",
              "name": "owner",
              "type": "address"
            },
            {
              "internalType": "string",
              "name": "description",
              "type": "string"
            },
            {
              "internalType": "uint256",
              "name": "fundedAmount",
              "type": "uint256"
            },
            {
              "internalType": "uint256",
              "name": "goal",
              "type": "uint256"
            },
            {
              "internalType": "address[]",
              "name": "funders",
              "type": "address[]"
            },
            {
              "internalType": "uint256",
              "name": "id",
              "type": "uint256"
            },
            {
              "internalType": "string",
              "name": "mainImage",
              "type": "string"
            }
          ],
          "internalType": "struct Charity.aCharity",
          "name": "",
          "type": "tuple"
        }
      ],
      "stateMutability": "view",
      "type": "function"
    },
    {
      "inputs": [],
      "name": "getCurrentId",
      "outputs": [
        {
          "internalType": "uint256",
          "name": "",
          "type": "uint256"
        }
      ],
      "stateMutability": "view",
      "type": "function"
    },
    {
      "inputs": [
        {
          "internalType": "address",
          "name": "_owner",
          "type": "address"
        },
        {
          "internalType": "uint256",
          "name": "_id",
          "type": "uint256"
        }
      ],
      "name": "withdrawFunds",
      "outputs": [],
      "stateMutability": "payable",
      "type": "function"
    }
  ],
  "transactionHash": "0xbedb9fb27d664b641327b72635992e2bfbee7cf463d0f2ed8aff198734dcb633",
  "args": [],
  "numDeployments": 7,
  "solcInputHash": "0d214fbb4e1ece8da5b6a75c010cfc34",
  "bytecode": "0x608060405234801561001057600080fd5b5060008081905550611dec806100276000396000f3fe6080604052600436106100555760003560e01c80632c40e11c1461005a5780636c14386214610076578063874da1d3146100a157806395c7c8fc146100de578063c10753291461011b578063c87cea8914610137575b600080fd5b610074600480360381019061006f91906115e7565b610174565b005b34801561008257600080fd5b5061008b61040d565b6040516100989190611636565b60405180910390f35b3480156100ad57600080fd5b506100c860048036038101906100c391906115e7565b610416565b6040516100d5919061187c565b60405180910390f35b3480156100ea57600080fd5b50610105600480360381019061010091906115e7565b61073a565b604051610112919061187c565b60405180910390f35b610135600480360381019061013091906115e7565b610a5e565b005b34801561014357600080fd5b5061015e600480360381019061015991906119d3565b611145565b60405161016b9190611636565b60405180910390f35b60003390506000349050600081116101b8576040517f022ab5e700000000000000000000000000000000000000000000000000000000815260040160405180910390fd5b8373ffffffffffffffffffffffffffffffffffffffff168273ffffffffffffffffffffffffffffffffffffffff16141561021e576040517fb4a3a72100000000000000000000000000000000000000000000000000000000815260040160405180910390fd5b6000600160008673ffffffffffffffffffffffffffffffffffffffff1673ffffffffffffffffffffffffffffffffffffffff16815260200190815260200160002060008581526020019081526020016000206006015414156102ac576040517fc4117ae600000000000000000000000000000000000000000000000000000000815260040160405180910390fd5b600160008573ffffffffffffffffffffffffffffffffffffffff1673ffffffffffffffffffffffffffffffffffffffff1681526020019081526020016000206000848152602001908152602001600020600501339080600181540180825580915050600190039060005260206000200160009091909190916101000a81548173ffffffffffffffffffffffffffffffffffffffff021916908373ffffffffffffffffffffffffffffffffffffffff16021790555080600160008673ffffffffffffffffffffffffffffffffffffffff1673ffffffffffffffffffffffffffffffffffffffff168152602001908152602001600020600085815260200190815260200160002060030160008282546103c39190611abd565b925050819055507f320ef887b6513a67debbc52f762a6063d0a25936a73d29b79b4e2d723bc4ad31838584846040516103ff9493929190611b22565b60405180910390a150505050565b60008054905090565b61041e611356565b600160008473ffffffffffffffffffffffffffffffffffffffff1673ffffffffffffffffffffffffffffffffffffffff16815260200190815260200160002060008381526020019081526020016000206040518061010001604052908160008201805461048a90611b96565b80601f01602080910402602001604051908101604052809291908181526020018280546104b690611b96565b80156105035780601f106104d857610100808354040283529160200191610503565b820191906000526020600020905b8154815290600101906020018083116104e657829003601f168201915b505050505081526020016001820160009054906101000a900473ffffffffffffffffffffffffffffffffffffffff1673ffffffffffffffffffffffffffffffffffffffff1673ffffffffffffffffffffffffffffffffffffffff16815260200160028201805461057290611b96565b80601f016020809104026020016040519081016040528092919081815260200182805461059e90611b96565b80156105eb5780601f106105c0576101008083540402835291602001916105eb565b820191906000526020600020905b8154815290600101906020018083116105ce57829003601f168201915b5050505050815260200160038201548152602001600482015481526020016005820180548060200260200160405190810160405280929190818152602001828054801561068d57602002820191906000526020600020905b8160009054906101000a900473ffffffffffffffffffffffffffffffffffffffff1673ffffffffffffffffffffffffffffffffffffffff1681526020019060010190808311610643575b50505050508152602001600682015481526020016007820180546106b090611b96565b80601f01602080910402602001604051908101604052809291908181526020018280546106dc90611b96565b80156107295780601f106106fe57610100808354040283529160200191610729565b820191906000526020600020905b81548152906001019060200180831161070c57829003601f168201915b505050505081525050905092915050565b610742611356565b600260008473ffffffffffffffffffffffffffffffffffffffff1673ffffffffffffffffffffffffffffffffffffffff1681526020019081526020016000206000838152602001908152602001600020604051806101000160405290816000820180546107ae90611b96565b80601f01602080910402602001604051908101604052809291908181526020018280546107da90611b96565b80156108275780601f106107fc57610100808354040283529160200191610827565b820191906000526020600020905b81548152906001019060200180831161080a57829003601f168201915b505050505081526020016001820160009054906101000a900473ffffffffffffffffffffffffffffffffffffffff1673ffffffffffffffffffffffffffffffffffffffff1673ffffffffffffffffffffffffffffffffffffffff16815260200160028201805461089690611b96565b80601f01602080910402602001604051908101604052809291908181526020018280546108c290611b96565b801561090f5780601f106108e45761010080835404028352916020019161090f565b820191906000526020600020905b8154815290600101906020018083116108f257829003601f168201915b505050505081526020016003820154815260200160048201548152602001600582018054806020026020016040519081016040528092919081815260200182805480156109b157602002820191906000526020600020905b8160009054906101000a900473ffffffffffffffffffffffffffffffffffffffff1673ffffffffffffffffffffffffffffffffffffffff1681526020019060010190808311610967575b50505050508152602001600682015481526020016007820180546109d490611b96565b80601f0160208091040260200160405190810160405280929190818152602001828054610a0090611b96565b8015610a4d5780601f10610a2257610100808354040283529160200191610a4d565b820191906000526020600020905b815481529060010190602001808311610a3057829003601f168201915b505050505081525050905092915050565b60003390508273ffffffffffffffffffffffffffffffffffffffff168173ffffffffffffffffffffffffffffffffffffffff1614610ac8576040517ffeb81bba00000000000000000000000000000000000000000000000000000000815260040160405180910390fd5b6000600160008573ffffffffffffffffffffffffffffffffffffffff1673ffffffffffffffffffffffffffffffffffffffff168152602001908152602001600020600084815260200190815260200160002060405180610100016040529081600082018054610b3690611b96565b80601f0160208091040260200160405190810160405280929190818152602001828054610b6290611b96565b8015610baf5780601f10610b8457610100808354040283529160200191610baf565b820191906000526020600020905b815481529060010190602001808311610b9257829003601f168201915b505050505081526020016001820160009054906101000a900473ffffffffffffffffffffffffffffffffffffffff1673ffffffffffffffffffffffffffffffffffffffff1673ffffffffffffffffffffffffffffffffffffffff168152602001600282018054610c1e90611b96565b80601f0160208091040260200160405190810160405280929190818152602001828054610c4a90611b96565b8015610c975780601f10610c6c57610100808354040283529160200191610c97565b820191906000526020600020905b815481529060010190602001808311610c7a57829003601f168201915b50505050508152602001600382015481526020016004820154815260200160058201805480602002602001604051908101604052809291908181526020018280548015610d3957602002820191906000526020600020905b8160009054906101000a900473ffffffffffffffffffffffffffffffffffffffff1673ffffffffffffffffffffffffffffffffffffffff1681526020019060010190808311610cef575b5050505050815260200160068201548152602001600782018054610d5c90611b96565b80601f0160208091040260200160405190810160405280929190818152602001828054610d8890611b96565b8015610dd55780601f10610daa57610100808354040283529160200191610dd5565b820191906000526020600020905b815481529060010190602001808311610db857829003601f168201915b505050505081525050905060008160c001511415610e1f576040517fc4117ae600000000000000000000000000000000000000000000000000000000815260040160405180910390fd5b600160008573ffffffffffffffffffffffffffffffffffffffff1673ffffffffffffffffffffffffffffffffffffffff168152602001908152602001600020600084815260200190815260200160002060008082016000610e8091906113b1565b6001820160006101000a81549073ffffffffffffffffffffffffffffffffffffffff0219169055600282016000610eb791906113b1565b60038201600090556004820160009055600582016000610ed791906113f1565b6006820160009055600782016000610eef91906113b1565b505060008160600151905081600260008773ffffffffffffffffffffffffffffffffffffffff1673ffffffffffffffffffffffffffffffffffffffff16815260200190815260200160002060008681526020019081526020016000206000820151816000019080519060200190610f67929190611412565b5060208201518160010160006101000a81548173ffffffffffffffffffffffffffffffffffffffff021916908373ffffffffffffffffffffffffffffffffffffffff1602179055506040820151816002019080519060200190610fcb929190611412565b50606082015181600301556080820151816004015560a0820151816005019080519060200190610ffc929190611498565b5060c0820151816006015560e0820151816007019080519060200190611023929190611412565b5090505060008111611061576040517f022ab5e700000000000000000000000000000000000000000000000000000000815260040160405180910390fd5b60008373ffffffffffffffffffffffffffffffffffffffff168260405161108790611bf9565b60006040518083038185875af1925050503d80600081146110c4576040519150601f19603f3d011682016040523d82523d6000602084013e6110c9565b606091505b5050905080611104576040517f7b7a0e7800000000000000000000000000000000000000000000000000000000815260040160405180910390fd5b7f8a43c200a722669df503c8997c4ae4af96d8849cba45c39bccf948d45223e7708686604051611135929190611c0e565b60405180910390a1505050505050565b600080600081548092919061115990611c37565b91905055506000339050606060006040518061010001604052808981526020018473ffffffffffffffffffffffffffffffffffffffff16815260200188815260200160008152602001878152602001838152602001600054815260200186815250905080600160008573ffffffffffffffffffffffffffffffffffffffff1673ffffffffffffffffffffffffffffffffffffffff168152602001908152602001600020600080548152602001908152602001600020600082015181600001908051906020019061122a929190611412565b5060208201518160010160006101000a81548173ffffffffffffffffffffffffffffffffffffffff021916908373ffffffffffffffffffffffffffffffffffffffff160217905550604082015181600201908051906020019061128e929190611412565b50606082015181600301556080820151816004015560a08201518160050190805190602001906112bf929190611498565b5060c0820151816006015560e08201518160070190805190602001906112e6929190611412565b509050506000548373ffffffffffffffffffffffffffffffffffffffff167f8db02c9a32c6df9748ef537b5f0c0d0eb8b1bea36eaf049a31cd63dd338293288a8a60008b888c60405161133e96959493929190611d39565b60405180910390a36000549350505050949350505050565b60405180610100016040528060608152602001600073ffffffffffffffffffffffffffffffffffffffff1681526020016060815260200160008152602001600081526020016060815260200160008152602001606081525090565b5080546113bd90611b96565b6000825580601f106113cf57506113ee565b601f0160209004906000526020600020908101906113ed9190611522565b5b50565b508054600082559060005260206000209081019061140f9190611522565b50565b82805461141e90611b96565b90600052602060002090601f0160209004810192826114405760008555611487565b82601f1061145957805160ff1916838001178555611487565b82800160010185558215611487579182015b8281111561148657825182559160200191906001019061146b565b5b5090506114949190611522565b5090565b828054828255906000526020600020908101928215611511579160200282015b828111156115105782518260006101000a81548173ffffffffffffffffffffffffffffffffffffffff021916908373ffffffffffffffffffffffffffffffffffffffff160217905550916020019190600101906114b8565b5b50905061151e9190611522565b5090565b5b8082111561153b576000816000905550600101611523565b5090565b6000604051905090565b600080fd5b600080fd5b600073ffffffffffffffffffffffffffffffffffffffff82169050919050565b600061157e82611553565b9050919050565b61158e81611573565b811461159957600080fd5b50565b6000813590506115ab81611585565b92915050565b6000819050919050565b6115c4816115b1565b81146115cf57600080fd5b50565b6000813590506115e1816115bb565b92915050565b600080604083850312156115fe576115fd611549565b5b600061160c8582860161159c565b925050602061161d858286016115d2565b9150509250929050565b611630816115b1565b82525050565b600060208201905061164b6000830184611627565b92915050565b600081519050919050565b600082825260208201905092915050565b60005b8381101561168b578082015181840152602081019050611670565b8381111561169a576000848401525b50505050565b6000601f19601f8301169050919050565b60006116bc82611651565b6116c6818561165c565b93506116d681856020860161166d565b6116df816116a0565b840191505092915050565b6116f381611573565b82525050565b611702816115b1565b82525050565b600081519050919050565b600082825260208201905092915050565b6000819050602082019050919050565b600061174083836116ea565b60208301905092915050565b6000602082019050919050565b600061176482611708565b61176e8185611713565b935061177983611724565b8060005b838110156117aa5781516117918882611734565b975061179c8361174c565b92505060018101905061177d565b5085935050505092915050565b60006101008301600083015184820360008601526117d582826116b1565b91505060208301516117ea60208601826116ea565b506040830151848203604086015261180282826116b1565b915050606083015161181760608601826116f9565b50608083015161182a60808601826116f9565b5060a083015184820360a08601526118428282611759565b91505060c083015161185760c08601826116f9565b5060e083015184820360e086015261186f82826116b1565b9150508091505092915050565b6000602082019050818103600083015261189681846117b7565b905092915050565b600080fd5b600080fd5b7f4e487b7100000000000000000000000000000000000000000000000000000000600052604160045260246000fd5b6118e0826116a0565b810181811067ffffffffffffffff821117156118ff576118fe6118a8565b5b80604052505050565b600061191261153f565b905061191e82826118d7565b919050565b600067ffffffffffffffff82111561193e5761193d6118a8565b5b611947826116a0565b9050602081019050919050565b82818337600083830152505050565b600061197661197184611923565b611908565b905082815260208101848484011115611992576119916118a3565b5b61199d848285611954565b509392505050565b600082601f8301126119ba576119b961189e565b5b81356119ca848260208601611963565b91505092915050565b600080600080608085870312156119ed576119ec611549565b5b600085013567ffffffffffffffff811115611a0b57611a0a61154e565b5b611a17878288016119a5565b945050602085013567ffffffffffffffff811115611a3857611a3761154e565b5b611a44878288016119a5565b9350506040611a55878288016115d2565b925050606085013567ffffffffffffffff811115611a7657611a7561154e565b5b611a82878288016119a5565b91505092959194509250565b7f4e487b7100000000000000000000000000000000000000000000000000000000600052601160045260246000fd5b6000611ac8826115b1565b9150611ad3836115b1565b9250827fffffffffffffffffffffffffffffffffffffffffffffffffffffffffffffffff03821115611b0857611b07611a8e565b5b828201905092915050565b611b1c81611573565b82525050565b6000608082019050611b376000830187611627565b611b446020830186611b13565b611b516040830185611b13565b611b5e6060830184611627565b95945050505050565b7f4e487b7100000000000000000000000000000000000000000000000000000000600052602260045260246000fd5b60006002820490506001821680611bae57607f821691505b60208210811415611bc257611bc1611b67565b5b50919050565b600081905092915050565b50565b6000611be3600083611bc8565b9150611bee82611bd3565b600082019050919050565b6000611c0482611bd6565b9150819050919050565b6000604082019050611c236000830185611b13565b611c306020830184611627565b9392505050565b6000611c42826115b1565b91507fffffffffffffffffffffffffffffffffffffffffffffffffffffffffffffffff821415611c7557611c74611a8e565b5b600182019050919050565b600082825260208201905092915050565b6000611c9c82611651565b611ca68185611c80565b9350611cb681856020860161166d565b611cbf816116a0565b840191505092915050565b600082825260208201905092915050565b6000611ce682611708565b611cf08185611cca565b9350611cfb83611724565b8060005b83811015611d2c578151611d138882611734565b9750611d1e8361174c565b925050600181019050611cff565b5085935050505092915050565b600060c0820190508181036000830152611d538189611c91565b90508181036020830152611d678188611c91565b9050611d766040830187611627565b611d836060830186611627565b8181036080830152611d958185611cdb565b905081810360a0830152611da98184611c91565b905097965050505050505056fea2646970667358221220bff9370e59d58395adbc6c96cb09f0b07e1eabb23535f2411b5a4d42c5027ad664736f6c63430008090033",
  "devdoc": {
    "kind": "dev",
    "methods": {},
    "version": 1
  },
  "userdoc": {
    "kind": "user",
    "methods": {},
    "version": 1
  },
  "storageLayout": {
    "storage": [
      {
        "astId": 70,
        "contract": "contracts/Charity.sol:Charity",
        "label": "currentId",
        "offset": 0,
        "slot": "0",
        "type": "t_uint256"
      },
      {
        "astId": 77,
        "contract": "contracts/Charity.sol:Charity",
        "label": "charities",
        "offset": 0,
        "slot": "1",
        "type": "t_mapping(t_address,t_mapping(t_uint256,t_struct(aCharity)68_storage))"
      },
      {
        "astId": 84,
        "contract": "contracts/Charity.sol:Charity",
        "label": "completedCharities",
        "offset": 0,
        "slot": "2",
        "type": "t_mapping(t_address,t_mapping(t_uint256,t_struct(aCharity)68_storage))"
      }
    ],
    "types": {
      "t_address": {
        "encoding": "inplace",
        "label": "address",
        "numberOfBytes": "20"
      },
      "t_array(t_address)dyn_storage": {
        "base": "t_address",
        "encoding": "dynamic_array",
        "label": "address[]",
        "numberOfBytes": "32"
      },
      "t_mapping(t_address,t_mapping(t_uint256,t_struct(aCharity)68_storage))": {
        "encoding": "mapping",
        "key": "t_address",
        "label": "mapping(address => mapping(uint256 => struct Charity.aCharity))",
        "numberOfBytes": "32",
        "value": "t_mapping(t_uint256,t_struct(aCharity)68_storage)"
      },
      "t_mapping(t_uint256,t_struct(aCharity)68_storage)": {
        "encoding": "mapping",
        "key": "t_uint256",
        "label": "mapping(uint256 => struct Charity.aCharity)",
        "numberOfBytes": "32",
        "value": "t_struct(aCharity)68_storage"
      },
      "t_string_storage": {
        "encoding": "bytes",
        "label": "string",
        "numberOfBytes": "32"
      },
      "t_struct(aCharity)68_storage": {
        "encoding": "inplace",
        "label": "struct Charity.aCharity",
        "members": [
          {
            "astId": 52,
            "contract": "contracts/Charity.sol:Charity",
            "label": "name",
            "offset": 0,
            "slot": "0",
            "type": "t_string_storage"
          },
          {
            "astId": 54,
            "contract": "contracts/Charity.sol:Charity",
            "label": "owner",
            "offset": 0,
            "slot": "1",
            "type": "t_address"
          },
          {
            "astId": 56,
            "contract": "contracts/Charity.sol:Charity",
            "label": "description",
            "offset": 0,
            "slot": "2",
            "type": "t_string_storage"
          },
          {
            "astId": 58,
            "contract": "contracts/Charity.sol:Charity",
            "label": "fundedAmount",
            "offset": 0,
            "slot": "3",
            "type": "t_uint256"
          },
          {
            "astId": 60,
            "contract": "contracts/Charity.sol:Charity",
            "label": "goal",
            "offset": 0,
            "slot": "4",
            "type": "t_uint256"
          },
          {
            "astId": 63,
            "contract": "contracts/Charity.sol:Charity",
            "label": "funders",
            "offset": 0,
            "slot": "5",
            "type": "t_array(t_address)dyn_storage"
          },
          {
            "astId": 65,
            "contract": "contracts/Charity.sol:Charity",
            "label": "id",
            "offset": 0,
            "slot": "6",
            "type": "t_uint256"
          },
          {
            "astId": 67,
            "contract": "contracts/Charity.sol:Charity",
            "label": "mainImage",
            "offset": 0,
            "slot": "7",
            "type": "t_string_storage"
          }
        ],
        "numberOfBytes": "256"
      },
      "t_uint256": {
        "encoding": "inplace",
        "label": "uint256",
        "numberOfBytes": "32"
      }
    }
  }
}